{
  "contractName": "TodoList",
  "abi": [
    {
      "inputs": [
        {
          "internalType": "uint256",
          "name": "",
          "type": "uint256"
        }
      ],
      "name": "todos",
      "outputs": [
        {
          "internalType": "uint256",
          "name": "id",
          "type": "uint256"
        },
        {
          "internalType": "string",
          "name": "content",
          "type": "string"
        },
        {
          "internalType": "bool",
          "name": "completed",
          "type": "bool"
        }
      ],
      "stateMutability": "view",
      "type": "function",
      "constant": true
    },
    {
      "inputs": [
        {
          "internalType": "string",
          "name": "_content",
          "type": "string"
        }
      ],
      "name": "addTodo",
      "outputs": [],
      "stateMutability": "nonpayable",
      "type": "function"
    },
    {
      "inputs": [
        {
          "internalType": "uint256",
          "name": "_id",
          "type": "uint256"
        }
      ],
      "name": "toggleCompleted",
      "outputs": [],
      "stateMutability": "nonpayable",
      "type": "function"
    },
    {
      "inputs": [],
      "name": "getTodos",
      "outputs": [
        {
          "components": [
            {
              "internalType": "uint256",
              "name": "id",
              "type": "uint256"
            },
            {
              "internalType": "string",
              "name": "content",
              "type": "string"
            },
            {
              "internalType": "bool",
              "name": "completed",
              "type": "bool"
            }
          ],
          "internalType": "struct TodoList.Todo[]",
          "name": "",
          "type": "tuple[]"
        }
      ],
      "stateMutability": "view",
      "type": "function",
      "constant": true
    }
  ],
  "bytecode": "0x608060405234801561001057600080fd5b50610958806100206000396000f3fe608060405234801561001057600080fd5b506004361061004c5760003560e01c8063455f50241461005157806395ffebf51461006d578063bc8bc2b414610089578063c33926cb146100bb575b600080fd5b61006b6004803603810190610066919061053b565b6100d9565b005b610087600480360381019061008291906104fa565b610156565b005b6100a3600480360381019061009e919061053b565b6101f5565b6040516100b29392919061070d565b60405180910390f35b6100c36102c4565b6040516100d091906106eb565b60405180910390f35b6000808281548110610114577f4e487b7100000000000000000000000000000000000000000000000000000000600052603260045260246000fd5b906000526020600020906003020190508060020160009054906101000a900460ff16158160020160006101000a81548160ff0219169083151502179055505050565b600080805490509050600060405180606001604052808381526020018481526020016000151581525090806001815401808255809150506001900390600052602060002090600302016000909190919091506000820151816000015560208201518160010190805190602001906101ce9291906103da565b5060408201518160020160006101000a81548160ff02191690831515021790555050505050565b6000818154811061020557600080fd5b906000526020600020906003020160009150905080600001549080600101805461022e9061086a565b80601f016020809104026020016040519081016040528092919081815260200182805461025a9061086a565b80156102a75780601f1061027c576101008083540402835291602001916102a7565b820191906000526020600020905b81548152906001019060200180831161028a57829003601f168201915b5050505050908060020160009054906101000a900460ff16905083565b60606000805480602002602001604051908101604052809291908181526020016000905b828210156103d15783829060005260206000209060030201604051806060016040529081600082015481526020016001820180546103259061086a565b80601f01602080910402602001604051908101604052809291908181526020018280546103519061086a565b801561039e5780601f106103735761010080835404028352916020019161039e565b820191906000526020600020905b81548152906001019060200180831161038157829003601f168201915b505050505081526020016002820160009054906101000a900460ff161515151581525050815260200190600101906102e8565b50505050905090565b8280546103e69061086a565b90600052602060002090601f016020900481019282610408576000855561044f565b82601f1061042157805160ff191683800117855561044f565b8280016001018555821561044f579182015b8281111561044e578251825591602001919060010190610433565b5b50905061045c9190610460565b5090565b5b80821115610479576000816000905550600101610461565b5090565b600061049061048b8461077c565b61074b565b9050828152602081018484840111156104a857600080fd5b6104b3848285610828565b509392505050565b600082601f8301126104cc57600080fd5b81356104dc84826020860161047d565b91505092915050565b6000813590506104f48161090b565b92915050565b60006020828403121561050c57600080fd5b600082013567ffffffffffffffff81111561052657600080fd5b610532848285016104bb565b91505092915050565b60006020828403121561054d57600080fd5b600061055b848285016104e5565b91505092915050565b6000610570838361067d565b905092915050565b6000610583826107bc565b61058d81856107df565b93508360208202850161059f856107ac565b8060005b858110156105db57848403895281516105bc8582610564565b94506105c7836107d2565b925060208a019950506001810190506105a3565b50829750879550505050505092915050565b6105f681610812565b82525050565b61060581610812565b82525050565b6000610616826107c7565b61062081856107f0565b9350610630818560208601610837565b610639816108fa565b840191505092915050565b600061064f826107c7565b6106598185610801565b9350610669818560208601610837565b610672816108fa565b840191505092915050565b600060608301600083015161069560008601826106cd565b50602083015184820360208601526106ad828261060b565b91505060408301516106c260408601826105ed565b508091505092915050565b6106d68161081e565b82525050565b6106e58161081e565b82525050565b600060208201905081810360008301526107058184610578565b905092915050565b600060608201905061072260008301866106dc565b81810360208301526107348185610644565b905061074360408301846105fc565b949350505050565b6000604051905081810181811067ffffffffffffffff82111715610772576107716108cb565b5b8060405250919050565b600067ffffffffffffffff821115610797576107966108cb565b5b601f19601f8301169050602081019050919050565b6000819050602082019050919050565b600081519050919050565b600081519050919050565b6000602082019050919050565b600082825260208201905092915050565b600082825260208201905092915050565b600082825260208201905092915050565b60008115159050919050565b6000819050919050565b82818337600083830152505050565b60005b8381101561085557808201518184015260208101905061083a565b83811115610864576000848401525b50505050565b6000600282049050600182168061088257607f821691505b602082108114156108965761089561089c565b5b50919050565b7f4e487b7100000000000000000000000000000000000000000000000000000000600052602260045260246000fd5b7f4e487b7100000000000000000000000000000000000000000000000000000000600052604160045260246000fd5b6000601f19601f8301169050919050565b6109148161081e565b811461091f57600080fd5b5056fea26469706673582212208a15caac780e517dc6522871893cbdbc5f7bdea63ff51bacf1bd6a724078c3d764736f6c63430008000033",
  "immutableReferences": {},
  "source": "pragma solidity ^0.8.0;\r\n\r\ncontract TodoList {\r\n    struct Todo {\r\n        uint id;\r\n        string content;\r\n        bool completed;\r\n    }\r\n\r\n    Todo[] public todos;\r\n\r\n    function addTodo(string memory _content) public {\r\n        uint id = todos.length;\r\n        todos.push(Todo(id, _content, false));\r\n    }\r\n\r\n    function toggleCompleted(uint _id) public {\r\n        Todo storage todo = todos[_id];\r\n        todo.completed = !todo.completed;\r\n    }\r\n\r\n    function getTodos() public view returns (Todo[] memory) {\r\n        return todos;\r\n    }\r\n}",
  "sourcePath": "C:\\Work\\to_do_web3\\to-do-web3\\contracts\\TodoList.sol",
  "compiler": {
    "name": "solc",
    "version": "0.8.0+commit.c7dfd78e.Emscripten.clang"
  },
  "schemaVersion": "3.4.16",
  "updatedAt": "2024-06-10T18:08:15.124Z",
  "networkType": "ethereum",
  "devdoc": {
    "kind": "dev",
    "methods": {},
    "version": 1
  },
  "userdoc": {
    "kind": "user",
    "methods": {},
    "version": 1
  }
}