{
  "contractName": "TodoList",
  "abi": [
    {
      "anonymous": false,
      "inputs": [
        {
          "indexed": false,
          "internalType": "uint256",
          "name": "id",
          "type": "uint256"
        },
        {
          "indexed": false,
          "internalType": "string",
          "name": "content",
          "type": "string"
        }
      ],
      "name": "TodoAdded",
      "type": "event"
    },
    {
      "anonymous": false,
      "inputs": [
        {
          "indexed": false,
          "internalType": "uint256",
          "name": "id",
          "type": "uint256"
        },
        {
          "indexed": false,
          "internalType": "bool",
          "name": "completed",
          "type": "bool"
        }
      ],
      "name": "TodoCompleted",
      "type": "event"
    },
    {
      "anonymous": false,
      "inputs": [
        {
          "indexed": false,
          "internalType": "uint256",
          "name": "id",
          "type": "uint256"
        }
      ],
      "name": "TodoDeleted",
      "type": "event"
    },
    {
      "inputs": [
        {
          "internalType": "uint256",
          "name": "",
          "type": "uint256"
        }
      ],
      "name": "todos",
      "outputs": [
        {
          "internalType": "uint256",
          "name": "id",
          "type": "uint256"
        },
        {
          "internalType": "string",
          "name": "content",
          "type": "string"
        },
        {
          "internalType": "bool",
          "name": "completed",
          "type": "bool"
        }
      ],
      "stateMutability": "view",
      "type": "function",
      "constant": true
    },
    {
      "inputs": [
        {
          "internalType": "string",
          "name": "_content",
          "type": "string"
        }
      ],
      "name": "addTodo",
      "outputs": [],
      "stateMutability": "nonpayable",
      "type": "function"
    },
    {
      "inputs": [
        {
          "internalType": "uint256",
          "name": "_id",
          "type": "uint256"
        }
      ],
      "name": "toggleCompleted",
      "outputs": [],
      "stateMutability": "nonpayable",
      "type": "function"
    },
    {
      "inputs": [
        {
          "internalType": "uint256",
          "name": "_id",
          "type": "uint256"
        }
      ],
      "name": "deleteTodo",
      "outputs": [],
      "stateMutability": "nonpayable",
      "type": "function"
    },
    {
      "inputs": [],
      "name": "getTodos",
      "outputs": [
        {
          "components": [
            {
              "internalType": "uint256",
              "name": "id",
              "type": "uint256"
            },
            {
              "internalType": "string",
              "name": "content",
              "type": "string"
            },
            {
              "internalType": "bool",
              "name": "completed",
              "type": "bool"
            }
          ],
          "internalType": "struct TodoList.Todo[]",
          "name": "",
          "type": "tuple[]"
        }
      ],
      "stateMutability": "view",
      "type": "function",
      "constant": true
    }
  ],
  "bytecode": "0x608060405234801561001057600080fd5b50610f1c806100206000396000f3fe608060405234801561001057600080fd5b50600436106100575760003560e01c8063455f50241461005c5780636e3c67381461007857806395ffebf514610094578063bc8bc2b4146100b0578063c33926cb146100e2575b600080fd5b61007660048036038101906100719190610929565b610100565b005b610092600480360381019061008d9190610929565b6101c7565b005b6100ae60048036038101906100a991906108e8565b61043e565b005b6100ca60048036038101906100c59190610929565b610516565b6040516100d993929190610bcf565b60405180910390f35b6100ea6105e5565b6040516100f79190610b19565b60405180910390f35b600080828154811061013b577f4e487b7100000000000000000000000000000000000000000000000000000000600052603260045260246000fd5b906000526020600020906003020190508060020160009054906101000a900460ff16158160020160006101000a81548160ff0219169083151502179055507fb84a3507a15618a089880b44621cbac93a5991ec03f5e02e0c0b70273f94e71c828260020160009054906101000a900460ff166040516101bb929190610b76565b60405180910390a15050565b600080549050811061020e576040517f08c379a000000000000000000000000000000000000000000000000000000000815260040161020590610b3b565b60405180910390fd5b60008190505b60016000805490506102269190610d2a565b81101561038657600060018261023c9190610cd4565b81548110610273577f4e487b7100000000000000000000000000000000000000000000000000000000600052603260045260246000fd5b9060005260206000209060030201600082815481106102bb577f4e487b7100000000000000000000000000000000000000000000000000000000600052603260045260246000fd5b90600052602060002090600302016000820154816000015560018201816001019080546102e790610db6565b6102f29291906106fb565b506002820160009054906101000a900460ff168160020160006101000a81548160ff021916908315150217905550905050806000828154811061035e577f4e487b7100000000000000000000000000000000000000000000000000000000600052603260045260246000fd5b906000526020600020906003020160000181905550808061037e90610de8565b915050610214565b5060008054806103bf577f4e487b7100000000000000000000000000000000000000000000000000000000600052603160045260246000fd5b60019003818190600052602060002090600302016000808201600090556001820160006103ec9190610788565b6002820160006101000a81549060ff0219169055505090557f1072e4eeea43a52d09f5b6dfc870a079948f706133840ce9239aebc57fabb65f816040516104339190610b5b565b60405180910390a150565b600080805490509050600060405180606001604052808381526020018481526020016000151581525090806001815401808255809150506001900390600052602060002090600302016000909190919091506000820151816000015560208201518160010190805190602001906104b69291906107c8565b5060408201518160020160006101000a81548160ff02191690831515021790555050507f606222d2d9b2ffe82e59c226d772a363312cfce0027119e88e27c4db155e882d818360405161050a929190610b9f565b60405180910390a15050565b6000818154811061052657600080fd5b906000526020600020906003020160009150905080600001549080600101805461054f90610db6565b80601f016020809104026020016040519081016040528092919081815260200182805461057b90610db6565b80156105c85780601f1061059d576101008083540402835291602001916105c8565b820191906000526020600020905b8154815290600101906020018083116105ab57829003601f168201915b5050505050908060020160009054906101000a900460ff16905083565b60606000805480602002602001604051908101604052809291908181526020016000905b828210156106f257838290600052602060002090600302016040518060600160405290816000820154815260200160018201805461064690610db6565b80601f016020809104026020016040519081016040528092919081815260200182805461067290610db6565b80156106bf5780601f10610694576101008083540402835291602001916106bf565b820191906000526020600020905b8154815290600101906020018083116106a257829003601f168201915b505050505081526020016002820160009054906101000a900460ff16151515158152505081526020019060010190610609565b50505050905090565b82805461070790610db6565b90600052602060002090601f0160209004810192826107295760008555610777565b82601f1061073a5780548555610777565b8280016001018555821561077757600052602060002091601f016020900482015b8281111561077657825482559160010191906001019061075b565b5b509050610784919061084e565b5090565b50805461079490610db6565b6000825580601f106107a657506107c5565b601f0160209004906000526020600020908101906107c4919061084e565b5b50565b8280546107d490610db6565b90600052602060002090601f0160209004810192826107f6576000855561083d565b82601f1061080f57805160ff191683800117855561083d565b8280016001018555821561083d579182015b8281111561083c578251825591602001919060010190610821565b5b50905061084a919061084e565b5090565b5b8082111561086757600081600090555060010161084f565b5090565b600061087e61087984610c3e565b610c0d565b90508281526020810184848401111561089657600080fd5b6108a1848285610d74565b509392505050565b600082601f8301126108ba57600080fd5b81356108ca84826020860161086b565b91505092915050565b6000813590506108e281610ecf565b92915050565b6000602082840312156108fa57600080fd5b600082013567ffffffffffffffff81111561091457600080fd5b610920848285016108a9565b91505092915050565b60006020828403121561093b57600080fd5b6000610949848285016108d3565b91505092915050565b600061095e8383610aab565b905092915050565b600061097182610c7e565b61097b8185610ca1565b93508360208202850161098d85610c6e565b8060005b858110156109c957848403895281516109aa8582610952565b94506109b583610c94565b925060208a01995050600181019050610991565b50829750879550505050505092915050565b6109e481610d5e565b82525050565b6109f381610d5e565b82525050565b6000610a0482610c89565b610a0e8185610cb2565b9350610a1e818560208601610d83565b610a2781610ebe565b840191505092915050565b6000610a3d82610c89565b610a478185610cc3565b9350610a57818560208601610d83565b610a6081610ebe565b840191505092915050565b6000610a78600f83610cc3565b91507f496e76616c696420746f646f20494400000000000000000000000000000000006000830152602082019050919050565b6000606083016000830151610ac36000860182610afb565b5060208301518482036020860152610adb82826109f9565b9150506040830151610af060408601826109db565b508091505092915050565b610b0481610d6a565b82525050565b610b1381610d6a565b82525050565b60006020820190508181036000830152610b338184610966565b905092915050565b60006020820190508181036000830152610b5481610a6b565b9050919050565b6000602082019050610b706000830184610b0a565b92915050565b6000604082019050610b8b6000830185610b0a565b610b9860208301846109ea565b9392505050565b6000604082019050610bb46000830185610b0a565b8181036020830152610bc68184610a32565b90509392505050565b6000606082019050610be46000830186610b0a565b8181036020830152610bf68185610a32565b9050610c0560408301846109ea565b949350505050565b6000604051905081810181811067ffffffffffffffff82111715610c3457610c33610e8f565b5b8060405250919050565b600067ffffffffffffffff821115610c5957610c58610e8f565b5b601f19601f8301169050602081019050919050565b6000819050602082019050919050565b600081519050919050565b600081519050919050565b6000602082019050919050565b600082825260208201905092915050565b600082825260208201905092915050565b600082825260208201905092915050565b6000610cdf82610d6a565b9150610cea83610d6a565b9250827fffffffffffffffffffffffffffffffffffffffffffffffffffffffffffffffff03821115610d1f57610d1e610e31565b5b828201905092915050565b6000610d3582610d6a565b9150610d4083610d6a565b925082821015610d5357610d52610e31565b5b828203905092915050565b60008115159050919050565b6000819050919050565b82818337600083830152505050565b60005b83811015610da1578082015181840152602081019050610d86565b83811115610db0576000848401525b50505050565b60006002820490506001821680610dce57607f821691505b60208210811415610de257610de1610e60565b5b50919050565b6000610df382610d6a565b91507fffffffffffffffffffffffffffffffffffffffffffffffffffffffffffffffff821415610e2657610e25610e31565b5b600182019050919050565b7f4e487b7100000000000000000000000000000000000000000000000000000000600052601160045260246000fd5b7f4e487b7100000000000000000000000000000000000000000000000000000000600052602260045260246000fd5b7f4e487b7100000000000000000000000000000000000000000000000000000000600052604160045260246000fd5b6000601f19601f8301169050919050565b610ed881610d6a565b8114610ee357600080fd5b5056fea264697066735822122059270e01ad86d421944c6cfcbbdb6278a3ef51638f098eec539e0d1a2784e27d64736f6c63430008000033",
  "immutableReferences": {},
  "source": "// SPDX-License-Identifier: MIT \r\npragma solidity ^0.8.0;\r\n\r\ncontract TodoList {\r\n    struct Todo {\r\n        uint id;\r\n        string content;\r\n        bool completed;\r\n    }\r\n\r\n    Todo[] public todos;\r\n\r\n    event TodoAdded(uint id, string content);\r\n    event TodoCompleted(uint id, bool completed);\r\n    event TodoDeleted(uint id);\r\n\r\n    function addTodo(string memory _content) public {\r\n        uint id = todos.length;\r\n        todos.push(Todo(id, _content, false));\r\n        emit TodoAdded(id, _content);\r\n    }\r\n\r\n    function toggleCompleted(uint _id) public {\r\n        Todo storage todo = todos[_id];\r\n        todo.completed = !todo.completed;\r\n        emit TodoCompleted(_id, todo.completed);\r\n    }\r\n\r\n    function deleteTodo(uint _id) public {\r\n        require(_id < todos.length, \"Invalid todo ID\");\r\n\r\n        for (uint i = _id; i < todos.length - 1; i++) {\r\n            todos[i] = todos[i + 1];\r\n            todos[i].id = i;\r\n        }\r\n\r\n        todos.pop();\r\n        emit TodoDeleted(_id);\r\n    }\r\n\r\n    function getTodos() public view returns (Todo[] memory) {\r\n        return todos;\r\n    }\r\n}",
  "sourcePath": "C:\\Work\\to_do_web3\\to-do-web3\\contracts\\TodoList.sol",
  "compiler": {
    "name": "solc",
    "version": "0.8.0+commit.c7dfd78e.Emscripten.clang"
  },
  "schemaVersion": "3.4.16",
  "updatedAt": "2024-06-10T19:45:34.067Z",
  "networkType": "ethereum",
  "devdoc": {
    "kind": "dev",
    "methods": {},
    "version": 1
  },
  "userdoc": {
    "kind": "user",
    "methods": {},
    "version": 1
  }
}